:020000040000FA
:100000000C944E010C9476010C9476010C947601BC
:100010000C9476010C9476010C9476010C94760184
:100020000C9476010C9476010C9476010C94760174
:100030000C9476010C9476010C9476010C94760164
:100040000C9487080C9476010C9455080C942F0896
:100050000C9476010C9476010C9476010C94760144
:100060000C94D1080C9476010000000024002700B5
:100070002A0000000000250028002B005B424831C8
:100080003735305D204552524F523A20756E6465C7
:1000900066696E6564206572726F72005B424831FA
:1000A0003735305D204552524F523A206F746865A3
:1000B00072206572726F72005B4248313735305D75
:1000C000204552524F523A207265636569766564E5
:1000D000204E41434B206F6E207472616E736D69C8
:1000E00074206F662064617461005B42483137356B
:1000F000305D204552524F523A20726563656976F1
:100100006564204E41434B206F6E207472616E73A4
:100110006D6974206F662061646472657373005B3F
:100120004248313735305D204552524F523A2074A3
:100130006F6F206C6F6E6720666F72207472616ED5
:10014000736D697420627566666572005B42483142
:100150003735305D204552524F523A20756E6465F6
:1001600066696E6564206572726F72005B42483129
:100170003735305D204552524F523A206F746865D2
:1001800072206572726F72005B4248313735305DA4
:10019000204552524F523A20726563656976656414
:1001A000204E41434B206F6E207472616E736D69F7
:1001B00074206F662064617461005B42483137359A
:1001C000305D204552524F523A2072656365697620
:1001D0006564204E41434B206F6E207472616E73D4
:1001E0006D6974206F662061646472657373005B6F
:1001F0004248313735305D204552524F523A2074D3
:100200006F6F206C6F6E6720666F72207472616E04
:10021000736D697420627566666572004248313795
:100220003530207465737420626567696E005B42C7
:1002300048313735305D20446576696365206973E0
:10024000206E6F7420636F6E6669677572656421D6
:100250000000000008000201000003040700000085
:100260000000000000000000002300260029000418
:10027000040404040404040202020202020303034D
:100280000303030102040810204080010204081047
:100290002001020408102000F0099A0F11241FBE4B
:1002A000CFEFD8E0DEBFCDBF22E0A0E5B1E001C0D6
:1002B0001D92AB3FB207E1F711E0A0E0B1E0ECE83E
:1002C000F8E202C005900D92A035B107D9F711E010
:1002D000CDE4D1E004C02197FE010E943812CC3455
:1002E000D107C9F70E94F60A0C9439140C94000047
:1002F000CF92DF92EF92FF92CF93DF93B091D7022C
:10030000A0E08111AB2F8091D80290E0880F991F57
:10031000AC014B595D4FC090DD02D090DE02E09001
:10032000DF02F090E00230E020E0FA01C591D491C4
:10033000E881B90190E080E0EB23EA130AC02F5F67
:100340003F4F6C157D058E059F0578F36FEF7FEFAE
:10035000CB01DF91CF91FF90EF90DF90CF90089588
:1003600008950895AF92BF92CF92DF92EF92FF92DD
:100370000F931F93CF93DF936C017B018B01040FCD
:10038000151FEB015E01AE18BF08C017D10759F069
:100390006991D601ED91FC910190F081E02DC601AB
:1003A0000995892B79F7C501DF91CF911F910F91A5
:1003B000FF90EF90DF90CF90BF90AF900895FC0139
:1003C000538D448D252F30E0842F90E0821B930BBA
:1003D000541710F0CF96089501970895FC01918D60
:1003E000828D981761F0A28DAE0FBF2FB11D5D9663
:1003F0008C91928D9F5F9F73928F90E008958FEF05
:100400009FEF0895FC01918D828D981731F0828DB8
:10041000E80FF11D858D90E008958FEF9FEF08950F
:10042000FC01918D228D892F90E0805C9F4F821B73
:1004300091098F739927089583E192E00E94100239
:1004400021E0892B09F420E0822F089580E090E0DC
:10045000892B29F00E941C0281110C940000089540
:10046000FC01A48DA80FB92FB11DA35ABF4F2C9129
:10047000848D90E001968F739927848FA689B78920
:100480002C93A089B1898C91837080648C93938D17
:10049000848D981306C00288F389E02D80818F7DBA
:1004A00080830895EF92FF920F931F93CF93DF9372
:1004B000EC0181E0888F9B8D8C8D98131AC0E889A0
:1004C000F989808185FF15C09FB7F894EE89FF896F
:1004D0006083E889F98980818370806480839FBF0D
:1004E00081E090E0DF91CF911F910F91FF90EF900D
:1004F0000895F62E0B8D10E00F5F1F4F0F7311271D
:10050000E02E8C8D8E110CC00FB607FCFACFE88957
:10051000F989808185FFF5CFCE010E943002F1CFAD
:10052000EB8DEC0FFD2FF11DE35AFF4FF0829FB7CB
:10053000F8940B8FEA89FB8980818062CFCFCF93BB
:10054000DF93EC01888D8823B9F0AA89BB89E889FB
:10055000F9898C9185FD03C0808186FD0DC00FB6A1
:1005600007FCF7CF8C9185FFF2CF808185FFEDCF1F
:10057000CE010E943002E9CFDF91CF910895833000
:1005800081F028F4813099F08230A9F00895873005
:10059000A9F08830C9F08430B1F4809180008F7D5B
:1005A00003C0809180008F7780938000089584B588
:1005B0008F7784BD089584B58F7DFBCF8091B00087
:1005C0008F778093B00008958091B0008F7DF9CF30
:1005D0001F93CF93DF93282F30E0F901EF5AFD4F9F
:1005E0008491F901ED57FD4FD491F901E159FD4F87
:1005F000C491CC23A9F0162F81110E94BF02EC2FC9
:10060000F0E0EE0FFF1FEE58FF4FA591B4918FB7AA
:10061000F894EC91111108C0D095DE23DC938FBFC4
:10062000DF91CF911F910895DE2BF8CFCF93DF9309
:1006300090E0FC01ED57FD4F249181599D4FFC0145
:1006400084918823C9F090E0880F991FFC01E85934
:10065000FF4FA591B491FC01EE58FF4FC591D49185
:1006600061110DC09FB7F8948C91209582238C93D3
:100670008881282328839FBFDF91CF91089562301E
:1006800051F49FB7F8943C91822F809583238C93EB
:10069000E8812E2BEFCF8FB7F894EC912E2B2C9373
:1006A0008FBFEACF8E3008F08E50877080648093C1
:1006B0007C0080917A00806480937A0080917A0037
:1006C00086FDFCCF809178009091790008953FB726
:1006D000F8948091B5019091B601A091B701B091C5
:1006E000B80126B5A89B05C02F3F19F00196A11DA2
:1006F000B11D3FBFBA2FA92F982F8827BC01CD016C
:10070000620F711D811D911D42E0660F771F881FCA
:10071000991F4A95D1F708958F929F92AF92BF92F9
:10072000CF92DF92EF92FF924B015C010E94670330
:100730006B017C010E9467036C197D098E099F097A
:10074000683E734081059105A8F321E0821A910863
:10075000A108B10888EEC80E83E0D81EE11CF11C88
:1007600081149104A104B10429F7FF90EF90DF9068
:10077000CF90BF90AF909F908F900895CF92DF92CF
:10078000EF92FF920F931F93CF93DF93CDB7DEB716
:10079000C054D1400FB6F894DEBF0FBECDBF2FB707
:1007A000F89480910F0290911002A0911102B091E3
:1007B00012022FBF4091D9025091DA026091DB0200
:1007C0007091DC028C019D01041B150B260B370B6D
:1007D000B901A801403D57406105710590F4809131
:1007E000E102C05CDE4F0FB6F894DEBF0FBECDBF96
:1007F000DF91CF911F910F91FF90EF90DF90CF90FD
:1008000008958093D9029093DA02A093DB02B0930B
:10081000DC021092D4021092D3021092D2021092F3
:10082000D1021092D00262E08091D5020E9416039C
:1008300061E070E080E090E00E948C0361E08091D4
:10084000D5020E94160360E08091D5020E94E80262
:100850008091D6028551823020F58BE291E101979B
:10086000F1F762E08091D5020E9416038091E202C6
:1008700090E08230910538F0880F991F880F991FFA
:1008800005970197F1F7F89480E00E9478016F3F97
:100890007F4F8F4F9F4F61F41092E102789480E078
:1008A000A0CF64E170E080E090E00E948C03D9CF9B
:1008B00081E00E9478016F3F7F4F8F4F9F4F61F320
:1008C0008E010F5F1F4F6E018FEBC81A8EEFD80A93
:1008D000780180E00E947801F70160837183828350
:1008E000938381E00E947801F70164837583868396
:1008F0009783F8E0EF0EF11CEC14FD0451F77894A7
:1009000030E020E0F801C080D180E280F3804481B3
:10091000558166817781FFEFCF16DF06EF06FF0670
:1009200031F04F3F8FEF58076807780719F410929E
:10093000E102B5CFF90183E0F595E7958A95E1F7F6
:10094000E053FD4F8081880FC416D506E606F706F2
:1009500010F180832F5F3F4F085F1F4F2832310512
:1009600089F64091D4022091D0028091D102280FC3
:100970003327331F8091D202280F311D8091D3027B
:10098000820F932F911D99274817190681F681E050
:100990008093E10226CF8160DCCFDC01ED91FC91F8
:1009A0000190F081E02D099420919101260F3327C9
:1009B000331F21323105ECF42091E701FC0190E076
:1009C00080E0243069F082E00895A09191012191A6
:1009D000AC014F585E4FA40FB52FB11D2C9301965B
:1009E000861798F380919101680F6093910180E0E0
:1009F000089581E008951092E70181E08093E60177
:100A00001092E10161E082E10E94E80261E083E18D
:100A10000E94E802E9EBF0E080818E7F8083808194
:100A20008D7F808388E48093B80085E48093BC0048
:100A30000895CF93DF9391E0909370018823B9F0EC
:100A4000C091B800D091BA008091BC008A7B80939D
:100A5000BC0060E082E10E94E80260E083E10E9465
:100A6000E8020E94FB04D093BA00C093B800DF9163
:100A7000CF9108950895E091EE018091ED01E8177E
:100A800030F4F0E0E151FE4F808190E008958FEF67
:100A90009FEF08959091EE018091ED012FEF3FEFD0
:100AA000981748F4E92FF0E0E151FE4F208130E043
:100AB0009F5F9093EE01C90108958091ED0190919F
:100AC000EE01891B990B0895CF92DF92EF92FF926E
:100AD0000F931F93CF93DF937C01CB018A01209169
:100AE000C001222389F0EB016B01C40ED51ECC1589
:100AF000DD0569F06991D701ED91FC910190F081DC
:100B0000E02DC7010995F3CF642F0E94D404C801DA
:100B1000DF91CF911F910F91FF90EF90DF90CF90D9
:100B20000895CF93DF931F92CDB7DEB769832091ED
:100B3000C0012223F9F02091BD01203258F021E0BC
:100B400030E0FC013383228390E080E00F90DF915E
:100B5000CF9108958091BE01E82FF0E0E05BFE4F59
:100B6000998190838F5F8093BE018093BD0181E066
:100B700090E0ECCF61E0CE0101960E94D404F7CF63
:100B8000CF92DF92EF92FF920F931F93CF93DF9359
:100B9000D091BD0181E0D13208F09CC0C091BF016D
:100BA0000E9467036B017C018091E70181116CC099
:100BB00082E08093E70181E08093E6018FEF8093EC
:100BC000E5011092E401D093E301A0E5B1E0E1EC8E
:100BD000F1E080E0D8138DC01092E2018091E20133
:100BE000CC0FC82BC093E2018091E101813009F064
:100BF00084C01092E1010E9467036B017C01809127
:100C0000E2018093BB008091E9019091EA01A091FB
:100C1000EB01B091EC01892B8A2B8B2BA1F00E9468
:100C200067030091E9011091EA012091EB013091F5
:100C3000EC016C197D098E099F0906171707280713
:100C4000390708F442C08091BC0083FDD8CF85EC01
:100C50008093BC000E9467036B017C018091E701D7
:100C6000823009F44CC08091E5018F3F09F469C0DE
:100C70008091E501803209F466C08091E5018033FE
:100C800009F463C084E026C08091E9019091EA01F3
:100C9000A091EB01B091EC01892B8A2B8B2B09F4ED
:100CA00083CF0E9467030091E9011091EA0120912E
:100CB000EB013091EC016C197D098E099F09061733
:100CC00017072807390708F06FCF8091E8010E94C5
:100CD000190585E01092BE011092BD011092C0016D
:100CE000DF91CF911F910F91FF90EF90DF90CF9008
:100CF00008959D9191938F5F6DCF85EEA9CF8091DF
:100D0000E9019091EA01A091EB01B091EC01892BEE
:100D10008A2B8B2B09F4A2CF0E9467030091E90173
:100D20001091EA012091EB013091EC016C197D09E1
:100D30008E099F09061717072807390708F08ECF75
:100D4000C4CF80E0C7CF82E0C5CF83E0C3CF90E0BF
:100D500080E00895FC0101900020E9F73197AF0190
:100D6000481B590BBC0183E192E00C94B2018F92B5
:100D70009F92AF92BF920F931F93CF93DF93CDB704
:100D8000DEB7A1970FB6F894DEBF0FBECDBF19A294
:100D9000423008F44AE08E010F5D1F4F842E912CE3
:100DA000B12CA12CA50194010E941612E62FB901C5
:100DB000CA01EA30F4F4E05DD801EE938D01232BF3
:100DC000242B252B79F790E080E0109719F0CD01C6
:100DD0000E94AA06A1960FB6F894DEBF0FBECDBF43
:100DE000DF91CF911F910F91BF90AF909F908F9007
:100DF0000895E95CE1CF4F925F926F927F928F925C
:100E00009F92AF92BF92CF92DF92EF92FF920F9399
:100E10001F93CF936B017C01742EAC019B010E9448
:100E20001112882399F08AE291E0CF911F910F91DE
:100E3000FF90EF90DF90CF90BF90AF909F908F90FA
:100E40007F906F905F904F900C94AA0646015701D7
:100E5000E894B7F82FEF3FEF4FE75FE7C501B40124
:100E60000E94111281110DC02FEF3FEF4FE75FE796
:100E7000C501B4010E94A30F18161CF48EE291E084
:100E8000D4CF2FEF3FEF4FE75FE4C701B6010E94D9
:100E90000C1218161CF482E391E0C7CF2FEF3FEF3E
:100EA0004FE75FECC701B6010E94A30F87FDF3CFA8
:100EB00020E030E0A901C701B6010E94A30F10E0B5
:100EC00000E087FF0AC06DE283E192E00E945202D7
:100ED0008C01F7FAF094F7F8F094C0E060E070E06D
:100EE00080E09FE37C1641F020E030E040E251E4F6
:100EF0000E946B11CF5FF6CFA70196010E94FF10F1
:100F00002B013C010E94DD114B015C014AE00E9473
:100F1000B7067C01E00EF11ECC23C1F1C501B4017E
:100F20000E94A80F9B01AC01C301B2010E94FE10F8
:100F30004B015C016EE283E192E00E945202E80EF6
:100F4000F91EC15018F120E030E040E251E4C50143
:100F5000B4010E9409102B013C010E94DD114B01DC
:100F6000B12CA12C4AE0C501B4010E94B706E80EDD
:100F7000F91EC501B4010E94A80F9B01AC01C30179
:100F8000B2010E94FE104B015C01DBCFC701CF9183
:100F90001F910F91FF90EF90DF90CF90BF90AF9097
:100FA0009F908F907F906F905F904F9008950F93D8
:100FB0001F93CF93DF938C01D0E0C0E0F801EC0FDA
:100FC000FD1F6491662341F083E192E00E9452028A
:100FD000892B11F02196F2CF86E391E00E94AA06B8
:100FE0008C0F9D1FDF91CF911F910F91089585ED7B
:100FF0008093BC008091E9019091EA01A091EB01FE
:10100000B091EC010796A11DB11D23E0B695A795FF
:10101000979587952A95D1F72091BC0024FD03C0B0
:101020001092E70108954091E9015091EA01609121
:10103000EB017091EC01452B462B472B69F3009790
:10104000A105B10541F025E32A95F1F700000197CC
:10105000A109B109E1CF8091E8010C9419051F9213
:101060000F920FB60F9211242F933F934F935F93DC
:101070006F937F938F939F93AF93BF93EF93FF9360
:1010800083E192E00E943002FF91EF91BF91AF9116
:101090009F918F917F916F915F914F913F912F9190
:1010A0000F900FBE0F901F9018951F920F920FB6C2
:1010B0000F9211242F938F939F93EF93FF93E091BF
:1010C0002302F09124028081E0912902F0912A020A
:1010D00082FD1BC0908180912C028F5F8F732091C5
:1010E0002D02821741F0E0912C02F0E0ED5EFD4F01
:1010F000958F80932C02FF91EF919F918F912F916B
:101100000F900FBE0F901F9018958081F4CF1F9203
:101110000F920FB60F9211242F933F938F939F93AB
:10112000AF93BF9380910F0290911002A091110292
:10113000B09112023091B40123E0230F2D3758F5FE
:101140000196A11DB11D2093B40180930F029093CD
:101150001002A0931102B09312028091B5019091F8
:10116000B601A091B701B091B8010196A11DB11DC2
:101170008093B5019093B601A093B701B093B801E5
:10118000BF91AF919F918F913F912F910F900FBE83
:101190000F901F90189526E8230F0296A11DB11DF0
:1011A000D2CF1F920F920FB60F9211242F933F931D
:1011B0004F935F936F937F938F939F93AF93BF935F
:1011C000EF93FF938091B900887F803609F44AC07D
:1011D000F0F5883209F4A7C018F5803109F49BC0F6
:1011E000B8F4882309F4F9C0883009F494C0FF9159
:1011F000EF91BF91AF919F918F917F916F915F918F
:101200004F913F912F910F900FBE0F901F90189507
:10121000883109F488C0803251F78093E50114C009
:10122000803409F49DC040F48033B9F38833F9F673
:101230008093E50185ECB0C0803509F485C0883520
:1012400009F496C0883499F60E94F707D0CF883900
:1012500009F48CC038F5883729F050F4883611F03D
:10126000803729F683E08093E7011092B30157C0DD
:10127000883809F47BC0803919F0803809F0B7CF7D
:101280008091B301803208F071C0E091B30181E038
:101290008E0F8093B3018091BB00F0E0ED56FE4FBE
:1012A00080833DC0803B39F0E0F4803A09F479C096
:1012B000883A09F09CCF84E08093E7011092920174
:1012C00010929101E091BB01F091BC0109958091D0
:1012D000910181110FC081E0809391011092710101
:1012E00009C0803C09F4A6CF883C09F4A3CF883B11
:1012F00009F07DCFE091920181E08E0F8093920101
:10130000F0E0EF58FE4F80818093BB0090919201F6
:101310008091910129C08091E2018093BB0085EC0E
:101320008093BC0064CF9091E4018091E301981711
:1013300058F5E091E40181E08E0F8093E401F0E044
:10134000EF53FE4F8081E9CFE091E40181E08E0F01
:101350008093E4018091BB00F0E0EF53FE4F808367
:101360009091E4018091E3019817C8F285E8D8CF05
:10137000E091E40181E08E0F8093E4018091BB0055
:10138000F0E0EF53FE4F80838091E60181115CCF46
:1013900081E08093E10184EA8093BC001092E70130
:1013A00026CF85EC8093BC001092E7018091B301B9
:1013B000803230F4E091B301F0E0ED56FE4F108240
:1013C0006091B30170E0E091B901F091BA0183E955
:1013D00091E009951092B3010ACF1092E50134CF44
:1013E000109216021092150288EE93E0A0E0B0E091
:1013F0008093170290931802A0931902B0931A02D7
:101400002AE031E0309314022093130225EC30E0FF
:101410003093200220931F0224EC30E0309322020C
:101420002093210220EC30E0309324022093230209
:1014300021EC30E0309326022093250222EC30E0AC
:10144000309328022093270226EC30E030932A02C2
:101450002093290210922C0210922D0210922E023B
:1014600010922F021092B3021092B2028093B40233
:101470009093B502A093B602B093B7028CE191E0CD
:101480009093B1028093B0021092F2021092F10296
:101490001092F4021092F3021092F6021092F502EA
:1014A00061E070E090E080E00E9463130097E9F053
:1014B0009093F2028093F1021092F4021092F302E0
:1014C0002091F5023091F602232B11F4FC011082D9
:1014D0001092F6021092F50268E371E08091F10239
:1014E0009091F2020E94321414C08091F102909106
:1014F000F202009711F00E94DA121092F20210929A
:10150000F1021092F6021092F5021092F40210927B
:10151000F30285E48093E4028AE999E9A9E9BFE34B
:101520008093E5029093E602A093E702B093E8026D
:101530001092EA021092E90283E28093E30280EBC8
:1015400092E09093EC028093EB0284E08093D502CA
:101550008BE08093D602E7E8F2E0E491E093D702D3
:10156000E3E7F2E0E491E093D80280E89EE3A0E0B4
:10157000B0E08093DD029093DE02A093DF02B0938F
:10158000E0021092C0021092C1021092C2021092A8
:10159000C3021092C4021092C5021092C6021092A9
:1015A000C7021092C8021092C9021092CA02109289
:1015B000CB0280E090E0A0EAB0E48093CC0290936C
:1015C000CD02A093CE02B093CF0261E082E00E94F0
:1015D00016038EE090E09093BD028093BC0282E0FF
:1015E00090E09093BF028093BE020895789484B5F2
:1015F000826084BD84B5816084BD85B5826085BD0F
:1016000085B5816085BD80916E00816080936E009C
:10161000109281008091810082608093810080918E
:10162000810081608093810080918000816080933F
:1016300080008091B10084608093B1008091B000FF
:1016400081608093B00080917A00846080937A00FA
:1016500080917A00826080937A0080917A00816024
:1016600080937A0080917A00806880937A0010924B
:10167000C100E0912302F091240282E08083E09196
:101680001F02F09120021082E0912102F0912202CB
:101690008FEC808310922B02E0912702F0912802B8
:1016A00086E08083E0912502F091260280818061AE
:1016B0008083E0912502F0912602808188608083FA
:1016C000E0912502F0912602808180688083E0917C
:1016D0002502F091260280818F7D808360E088E082
:1016E0000E94160361E088E00E94E8021092EE0179
:1016F0001092ED011092BE011092BD010E94FB04F8
:1017000080EB91E09093BC018093BB0181EB91E071
:101710009093BA018093B90123E22093E302809170
:10172000EB029091EC02D1E0D093C0012093BF0175
:10173000DC01ED91FC910190F081E02D60E10995D3
:101740008091EB029091EC020E94C005C82F6AE0E4
:1017500070E080E090E00E948C03C23009F49AC0EF
:1017600048F4CC2391F08FEE91E0C13059F08CE435
:1017700091E008C088E891E0C33021F08CE691E068
:10178000C430A9F70E94D7078BC080E190E0909306
:10179000EA028093E9022FB7F89480910F029091AA
:1017A0001002A0911102B09112022FBF8093ED029E
:1017B0009093EE02A093EF02B093F0028091EB02BF
:1017C0009091EC022091E302D093C0012093BF01DD
:1017D0001092BE011092BD0162E470E00E94CD043F
:1017E0008091EB029091EC020E94C005C82F80917D
:1017F000EB029091EC022091E302D093C001209380
:10180000BF011092BE011092BD0165E670E00E941A
:10181000CD048091EB029091EC020E94C005C82B90
:101820008091EB029091EC022091E302D093C001F1
:101830002093BF011092BE011092BD016091E90298
:101840007091EA020E94CD048091EB029091EC022B
:101850000E94C005C82B6AE070E080E090E00E9422
:101860008C03C23009F491C050F4CC23B1F08FE165
:1018700091E0C13009F486CF8CE790E083CF88EB0C
:1018800090E0C33009F47ECF8CE990E0C43009F4D5
:1018900079CFF2CF8AEB91E075CF85E48093E402B3
:1018A0008CE192E00E94D70762E08091D5020E940D
:1018B00016032FB7F89480910F0290911002A09117
:1018C0001102B09112022FBF805D9740A109B109AA
:1018D0008093D9029093DA02A093DB02B093DC02EA
:1018E00087E38093E2026BE9262E312CCBE3D7E924
:1018F00055EC552E00E010E083E192E00E941002CA
:10190000181619060CF099C183E192E00E94EE01CD
:101910008A3009F092C189E391E00E94AA064091C1
:10192000F5025091F6026091F1027091F20283E1AA
:1019300092E00E94B20186E391E00E94AA068091A3
:10194000F5029091F602892B09F477C16BE471E0FE
:101950008091F1029091F2020E942914892B09F0E2
:101960006CC10E94BE03882349F08091D6028B305F
:1019700028F08D3068F085518230C8F1C12CD12C0F
:1019800040ECE42E4FE7F42E21C08AEE90E0FACE30
:101990006091D10270E090E080E00E94AA0F2DECEF
:1019A0003CEC4CEC5DE30E9409106B017C01609102
:1019B000D00270E090E080E00E94AA0F9B01AC0191
:1019C000C701B6010E94FF106B017C010E94BE039B
:1019D000882341F08091D6028C3009F440C1C8F4CC
:1019E0008B3091F160E070E080EC9FE755C0609132
:1019F000D0027091D10276276727762790E080E0A9
:101A00000E94A80F2DEC3CEC4CEC5DE30E94091009
:101A1000DBCF8551823030F7B090D2026B2D70E071
:101A2000762F662766277F778091D302682B90E018
:101A300080E00E94A80F2DEC3CEC4CEC5DE30E9492
:101A40000910B7FE29C029C16091D20270E090E070
:101A500080E00E94A80F4B015C014090D30247FE3A
:101A60000AC0AC019B0160E070E080E89FEB0E943F
:101A7000FE104B015C01642D6F7070E090E080E01F
:101A80000E94AA0F2DEC3CEC4CEC5DE30E94091087
:101A9000A50194010E94FF1042E00E94FB0642E073
:101AA000C701B6010E94FB0689E491E00E94AA06E4
:101AB0008091E9029091EA02892B09F0F0C08EE250
:101AC00092E00E94D707C12CD12CE12C20ECF22E01
:101AD00042E0C701B6010E94FB0689E491E00E9442
:101AE000AA0660E08091BE020E94E8028BE594E0C5
:101AF0000197F1F78091BC020E945203BC01990F3B
:101B0000880B990B0E94AA0F6093C4027093C502C0
:101B10008093C6029093C702C1010197F1F761E07B
:101B20008091BE020E94E802CE010197F1F720E009
:101B300030E040E85AE36091CC027091CD02809190
:101B4000CE029091CF020E9409102091C4023091E0
:101B5000C5024091C6025091C7020E9409106093CD
:101B6000C8027093C9028093CA029093CB022BE7FC
:101B700034E14EE25EE30E9409102DEC3CEC4CECAB
:101B80005DE30E94FE106B017C0120E030E0A901C2
:101B90000E94A30F87FDC5C1C092C002D092C102AE
:101BA000E092C202F092C3026091C0027091C10241
:101BB0008091C2029091C30242E00E94FB0689E438
:101BC00091E00E94AA068FE00E9452036C01990FD7
:101BD000EE08FF084AE0C701B601F7FE0DC06DE24E
:101BE00083E192E00E94520266277727CB016C19AD
:101BF0007D098E099F094AE00E94B70686E391E0BD
:101C00000E94AA0689E491E00E94AA06E9E5F2E0B2
:101C10008491EBE8F2E09491E7E7F2E0F490FF20A2
:101C200061F081110E94BF02EF2DF0E0EE0FFF1F67
:101C3000EB59FD4FA591B4918C9168EE73E080E073
:101C400090E00E948C030115110509F455CE0E9405
:101C50001C02882309F44CCE0E94000049CE40901B
:101C6000D202642D70E090E080E00E94A80F4B014A
:101C70005C016091D3026F7070E090E080E00E94A0
:101C8000AA0F2DEC3CEC4CEC5DE30E940910A50181
:101C900094010E94FF1047FEFFCE9058FDCEB090F9
:101CA000E3020E9467036B017C018091E7018111CF
:101CB00064C081E08093E7018093E601BFEFB093B9
:101CC000E5011092E4018093E3018093E2018091A9
:101CD000E201BB0CB82AB092E2018091E1018130AF
:101CE00009F0F7C01092E1010E9467036B017C01CB
:101CF0008091E2018093BB008091E9019091EA011B
:101D0000A091EB01B091EC01892B8A2B8B2BA1F0D8
:101D10000E9467038090E9019090EA01A090EB0196
:101D2000B090EC016C197D098E099F098616970603
:101D3000A806B90608F442C08091BC0083FDD8CF44
:101D40005092BC000E9467036B017C018091E70107
:101D5000813009F4C2C08091E401823008F0DFC014
:101D60008091E401E1ECF1E0AFEEB1E090E0981792
:101D700051F121912D939F5FFACF8091E9019091CC
:101D8000EA01A091EB01B091EC01892B8A2B8B2BFE
:101D900009F48BCF0E9467032091E9013091EA0199
:101DA0004091EB015091EC016C197D098E099F095E
:101DB000261737074807590708F077CF8091E801C1
:101DC0000E94190580E01092EE018093ED01C12C74
:101DD000D12C90E8E92E9FEBF92E823009F5809105
:101DE000EB029091EC02DC01ED91FC910284F38511
:101DF000E02D0995782E612C8091EB029091EC02F8
:101E0000DC01ED91FC910284F385E02D0995862992
:101E10009729BC0190E080E00E94A80F6B017C0133
:101E20002FB7F89480910F0290911002A0911102A7
:101E3000B09112022FBF8093ED029093EE02A09317
:101E4000EF02B093F00220E030E040E85FEBC70122
:101E5000B6010E94A30F882309F43ACE6091E402F0
:101E60006534A9F070E090E080E00E94A80F9B012B
:101E7000AC0160E070E08AE892E40E946B119B0183
:101E8000AC01C701B6010E9409106B017C01809171
:101E9000E9029091EA028132910511F0419751F4E3
:101EA00020E030E040E05FE3C701B6010E94091086
:101EB0006B017C012091E5023091E6024091E7023E
:101EC0005091E802C701B6010E946B116B017C01C1
:101ED000FFCDE5EEE093BC0035CF8091E901909114
:101EE000EA01A091EB01B091EC01892B8A2B8B2B9D
:101EF00009F42CCF0E9467038090E9019090EA01D9
:101F0000A090EB01B090EC016C197D098E099F093E
:101F100086169706A806B90608F018CF4FCF82E0BC
:101F200021CF1092C0021092C1021092C2021092F0
:101F3000C3023ACE8091F1029091F202009711F023
:101F40000C94DA1208950E94E50F08F481E00895D8
:101F5000E89409C097FB3EF4909580957095619543
:101F60007F4F8F4F9F4F9923A9F0F92F96E9BB27F9
:101F70009395F695879577956795B795F111F8CF75
:101F8000FAF4BB0F11F460FF1BC06F5F7F4F8F4FE0
:101F90009F4F16C0882311F096E911C0772321F0D6
:101FA0009EE8872F762F05C0662371F096E8862F6E
:101FB00070E060E02AF09A95660F771F881FDAF7C5
:101FC000880F9695879597F90895990F0008550FF2
:101FD000AA0BE0E8FEEF16161706E807F907C0F0AF
:101FE00012161306E407F50798F0621B730B840BB7
:101FF000950B39F40A2661F0232B242B252B21F491
:1020000008950A2609F4A140A6958FEF811D811D30
:1020100008950E941C100C948D100E947F1038F0BF
:102020000E94861020F0952311F00C9476100C94E9
:102030007C1011240C94C1100E949E1070F3959F87
:10204000C1F3950F50E0551F629FF001729FBB27AF
:10205000F00DB11D639FAA27F00DB11DAA1F649F4B
:102060006627B00DA11D661F829F2227B00DA11DFE
:10207000621F739FB00DA11D621F839FA00D611D84
:10208000221F749F3327A00D611D231F849F600DA5
:10209000211D822F762F6A2F11249F5750409AF0CE
:1020A000F1F088234AF0EE0FFF1FBB1F661F771F5A
:1020B000881F91505040A9F79E3F510580F00C9425
:1020C00076100C94C1105F3FE4F3983ED4F38695EC
:1020D00077956795B795F795E7959F5FC1F7FE2BC5
:1020E000880F911D9695879597F9089597F99F67A1
:1020F00080E870E060E008959FEF80EC0895002490
:102100000A941616170618060906089500240A945C
:1021100012161306140605060895092E0394000CE2
:1021200011F4882352F0BB0F40F4BF2B11F460FF71
:1021300004C06F5F7F4F8F4F9F4F089557FD90589A
:10214000440F551F59F05F3F71F04795880F97FB7B
:10215000991F61F09F3F79F0879508951216130635
:102160001406551FF2CF4695F1DF08C01616170664
:102170001806991FF1CF8695710561050894089599
:10218000E894BB2766277727CB0197F908952F920C
:102190003F924F925F926F927F928F929F92AF92F7
:1021A000BF92CF92DF92EF92FF920F931F93CF9344
:1021B000DF93CDB7DEB7CA1BDB0B0FB6F894DEBFDB
:1021C0000FBECDBF09942A88398848885F846E8401
:1021D0007D848C849B84AA84B984C884DF80EE804B
:1021E000FD800C811B81AA81B981CE0FD11D0FB654
:1021F000F894DEBF0FBECDBFED0108955058BB2748
:10220000AA270E9416110C948D100E947F1038F09E
:102210000E94861020F039F49F3F19F426F40C94A4
:102220007C100EF4E095E7FB0C947610E92F0E94E9
:102230009E1058F3BA17620773078407950720F0BA
:1022400079F4A6F50C94C0100EF4E0950B2EBA2F7D
:10225000A02D0B01B90190010C01CA01A0011124AC
:10226000FF27591B99F0593F50F4503E68F11A1658
:10227000F040A22F232F342F4427585FF3CF4695E9
:1022800037952795A795F0405395C9F77EF41F160B
:10229000BA0B620B730B840BBAF09150A1F0FF0FD5
:1022A000BB1F661F771F881FC2F70EC0BA0F621FC1
:1022B000731F841F48F4879577956795B795F795B1
:1022C0009E3F08F0B0CF9395880F08F09927EE0F46
:1022D0009795879508950E947F110C948D100E9408
:1022E000861058F00E947F1040F029F45F3F29F0DB
:1022F0000C94761051110C94C1100C947C100E9417
:102300009E1068F39923B1F3552391F3951B550B58
:10231000BB27AA2762177307840738F09F5F5F4FB8
:10232000220F331F441FAA1FA9F335D00E2E3AF0F7
:10233000E0E832D091505040E695001CCAF72BD00F
:10234000FE2F29D0660F771F881FBB1F2617370760
:102350004807AB07B0E809F0BB0B802DBF01FF2792
:1023600093585F4F3AF09E3F510578F00C947610E9
:102370000C94C1105F3FE4F3983ED4F386957795B3
:102380006795B795F7959F5FC9F7880F911D96954B
:10239000879597F90895E1E0660F771F881FBB1FA7
:1023A000621773078407BA0720F0621B730B840B54
:1023B000BA0BEE1F88F7E09508950E94A61088F0EA
:1023C0009F5798F0B92F9927B751B0F0E1F0660FF9
:1023D000771F881F991F1AF0BA95C9F714C0B1303A
:1023E00091F00E94C010B1E008950C94C010672FC6
:1023F000782F8827B85F39F0B93FCCF38695779569
:102400006795B395D9F73EF4909580957095619551
:102410007F4F8F4F9F4F08950E94E50F08F48FEF75
:1024200008950E94E50F880B990B0895A1E21A2EDA
:10243000AA1BBB1BFD010DC0AA1FBB1FEE1FFF1F68
:10244000A217B307E407F50720F0A21BB30BE40BB8
:10245000F50B661F771F881F991F1A9469F76095FF
:102460007095809590959B01AC01BD01CF010895B9
:10247000EE0FFF1F0590F491E02D09940F931F9329
:10248000CF93DF938230910510F482E090E0E091E9
:10249000F902F091FA0230E020E0B0E0A0E03097DD
:1024A00099F42115310509F44AC0281B390B243051
:1024B0003105D8F58A819B816115710589F1FB0190
:1024C00093838283FE0111C0408151810281138177
:1024D00048175907E0F04817590799F4109761F029
:1024E00012960C93129713961C933296CF01DF919C
:1024F000CF911F910F9108950093F9021093FA0262
:10250000F4CF2115310551F04217530738F0A901D6
:10251000DB019A01BD01DF01F801C1CFEF01F9CF65
:102520009093FA028093F902CDCFFE01E20FF31FE0
:10253000819391932250310939832883D7CF2091F9
:10254000F7023091F802232B41F4209102013091DF
:1025500003013093F8022093F7022091000130919B
:1025600001012115310541F42DB73EB74091040119
:1025700050910501241B350BE091F702F091F80210
:10258000E217F307A0F42E1B3F0B2817390778F04A
:10259000AC014E5F5F4F2417350748F04E0F5F1FA9
:1025A0005093F8024093F702819391939FCFF0E00C
:1025B000E0E09CCFCF93DF930097E9F0FC013297E6
:1025C00013821282A091F902B091FA02ED0130E07B
:1025D00020E01097A1F420813181820F931F209178
:1025E000F7023091F8022817390709F061C0F0931B
:1025F000F802E093F702DF91CF910895EA01CE1738
:10260000DF07E8F54A815B819E0141155105B1F76D
:10261000E901FB83EA8349915991C40FD51FEC1757
:10262000FD0761F4808191810296840F951FE90175
:1026300099838883828193819B838A83F0E0E0E0A1
:1026400012968D919C9113970097B9F52D913C911D
:102650001197CD010296820F931F2091F7023091BE
:10266000F8022817390739F6309751F51092FA0217
:102670001092F902B093F802A093F702BCCFD38373
:10268000C28340815181840F951FC817D90761F417
:102690004E5F5F4F88819981480F591F5183408356
:1026A0008A819B81938382832115310509F0B0CF04
:1026B000F093FA02E093F9029ECFFD01DC01C0CF56
:1026C00013821282D7CFB0E0A0E0E9E6F3E10C94E8
:1026D000C9108C01009751F4CB010E943E128C016D
:1026E000C801CDB7DEB7E0E10C94E510FC01E60FC0
:1026F000F71F9C0122503109E217F30708F49DC02F
:10270000D901CD91DC911197C617D70798F0C53044
:10271000D10530F3CE0104978617970708F3C61B3F
:10272000D70B2297C193D1936D937C93CF010E94D5
:10273000DA12D6CF5B01AC1ABD0A4C018C0E9D1E7D
:10274000A091F902B091FA02512C412CF12CE12C0C
:10275000109731F58091F7029091F802881599054C
:1027600009F05CC04616570608F058C08091000179
:1027700090910101009741F48DB79EB740910401FB
:1027800050910501841B950BE817F90708F055C017
:10279000F093F802E093F702F90171836083A0CF10
:1027A0008D919C91119712966C90129713967C9034
:1027B0001397A815B90559F56C0142E0C40ED11C58
:1027C000CA14DB0420F1AC014A195B09DA01129644
:1027D000159780F06282738251834083D9016D9393
:1027E0007C93E114F10471F0D7011396FC93EE93FE
:1027F000129776CF22968C0F9D1FF90191838083CB
:10280000F301EFCFF093FA02E093F90269CF481693
:10281000590608F42C017D01D3019ACFCB010E9407
:102820003E127C01009749F0AE01B8010E942014CD
:10283000C8010E94DA12870153CF10E000E050CFA8
:10284000FB01DC0102C001900D9241505040D8F7CD
:102850000895FB01DC018D91019080190110D9F3DD
:10286000990B0895FB01DC0101900D920020E1F726
:10287000089511E0CDE4D1E004C0FE010E943812B9
:102880002196CE34D107C9F7F894FFCF0000FB02A0
:102890008000000000005202B201DF019F0210021E
:1028A000EE0102020000000091056405A7063A054A
:1028B0005D054A053B056E616E00696E66006F76C8
:1028C00066000D0A0053656E6420746F20417264C7
:0C28D00075696E6F3A200072656164004B
:107E0000112484B714BE81FFF0D085E080938100F7
:107E100082E08093C00088E18093C10086E0809377
:107E2000C20080E18093C4008EE0C9D0259A86E02C
:107E300020E33CEF91E0309385002093840096BBD3
:107E4000B09BFECF1D9AA8958150A9F7CC24DD24C4
:107E500088248394B5E0AB2EA1E19A2EF3E0BF2EE7
:107E6000A2D0813461F49FD0082FAFD0023811F036
:107E7000013811F484E001C083E08DD089C08234E0
:107E800011F484E103C0853419F485E0A6D080C0E4
:107E9000853579F488D0E82EFF2485D0082F10E0AE
:107EA000102F00270E291F29000F111F8ED06801E7
:107EB0006FC0863521F484E090D080E0DECF843638
:107EC00009F040C070D06FD0082F6DD080E0C81688
:107ED00080E7D80618F4F601B7BEE895C0E0D1E017
:107EE00062D089930C17E1F7F0E0CF16F0E7DF06D8
:107EF00018F0F601B7BEE89568D007B600FCFDCFD4
:107F0000A601A0E0B1E02C9130E011968C91119780
:107F100090E0982F8827822B932B1296FA010C0160
:107F200087BEE89511244E5F5F4FF1E0A038BF0790
:107F300051F7F601A7BEE89507B600FCFDCF97BE46
:107F4000E89526C08437B1F42ED02DD0F82E2BD052
:107F50003CD0F601EF2C8F010F5F1F4F84911BD097
:107F6000EA94F801C1F70894C11CD11CFA94CF0C13
:107F7000D11C0EC0853739F428D08EE10CD085E9AC
:107F80000AD08FE07ACF813511F488E018D01DD067
:107F900080E101D065CF982F8091C00085FFFCCF94
:107FA0009093C60008958091C00087FFFCCF809118
:107FB000C00084FD01C0A8958091C6000895E0E648
:107FC000F0E098E1908380830895EDDF803219F02E
:107FD00088E0F5DFFFCF84E1DECF1F93182FE3DFCA
:107FE0001150E9F7F2DF1F91089580E0E8DFEE27F6
:047FF000FF270994CA
:027FFE00040479
:00000001FF
